:0400000012345678E8
:04000100FF00432198
:04000255DEBEEF9981
:040003002249206806
:04000400617665209C
:040005006120636FA4
:040006006D6D656E49
:04000700742061669A
:040008007465722287
:04000900224C6F6FA7
:04000A006B206F7583
:04000B007420666F88
:04000C0072203B2003
:04000D006368617251
:04000E006163746551
:04000F007222000059
:0400100022666F6F86
:040011006261722294
:040012002250726F97
:040013006772616D42
:040014006D65727331
:04001500206C696B87
:040016006520746F7E
:040017002073617978
:04001800205C2248FE
:04001900656C6C6F37
:04001A0020776F726A
:04001B006C645C2293
:04001C0022000000BE
:04001D0022666F6F79
:04001E006261722C7D
:04001F007370616D2C
:040020006567677336
:0400210022000000B9
:00000001FF
